:020000040800F2
:1000000000040020410A0008710B0008710B000871
:10001000710B0008710B0008710B0008710B0008D0
:10002000710B0008710B0008710B0008C10B000870
:10003000710B0008710B0008710B0008910B000890
:10004000710B0008E1440008710B0008214600080C
:10005000710B0008710B0008A1410008E141000884
:100060002142000861420008A1420008C131000895
:100070002132000881320008E132000841330008D3
:10008000A133000801340008513D0008710B00083D
:10009000710B0008710B0008710B0008E1420008A9
:1000A000710B0008215D0008710B0008415D00081C
:1000B000710B0008710B0008710B0008710B000830
:1000C000710B0008B1560008D1560008710B0008EA
:1000D000710B0008E160000801610008710B000865
:1000E000D14300082145000861450008710B000854
:1000F000710B0008A15B0008710B00086134000857
:10010000710B0008F1490008710B0008710B000821
:10011000710B0008710B0008710B0008710B0008CF
:10012000C13400082135000881350008E135000898
:1001300041360008710B0008A1450008710B00084A
:10014000710B0008710B0008710B0008710B00089F
:10015000A136000801370008613700082161000856
:10016000710B0008710B0008710B0008710B00087F
:10017000E1450008710B0008710B0008710B0008C5
:08018000710B0008710B00086F
:1001900081F0004102E000BF83F0004330B54FEA38
:1001A00041044FEA430594EA050F08BF90EA020FA5
:1001B0001FBF54EA000C55EA020C7FEA645C7FEA38
:1001C000655C00F0E2804FEA5454D4EB5555B8BF5B
:1001D0006D420CDD2C4480EA020281EA030382EACC
:1001E000000083EA010180EA020281EA0303362D5E
:1001F00088BF30BD11F0004F4FEA01314FF4801C31
:100200004CEA113102D0404261EB410113F0004F42
:100210004FEA03334CEA133302D0524263EB4303F9
:1002200094EA050F00F0A780A4F10104D5F1200E97
:100230000DDB02FA0EFC22FA05F2801841F10001F2
:1002400003FA0EF2801843FA05F359410EE0A5F1C6
:1002500020050EF1200E012A03FA0EFC28BF4CF0F7
:10026000020C43FA05F3C01851EBE37101F00045AD
:1002700007D54FF0000EDCF1000C7EEB00006EEBBA
:100280000101B1F5801F1BD3B1F5001F0CD3490844
:100290005FEA30004FEA3C0C04F101044FEA44529B
:1002A00012F5800F80F09A80BCF1004F08BF5FEA22
:1002B000500C50F1000041EB045141EA050130BD02
:1002C0005FEA4C0C404141EB010111F4801FA4F1A5
:1002D0000104E9D191F0000F04BF01460020B1FAFA
:1002E00081F308BF2033A3F10B03B3F120020CDA32
:1002F0000C3208DD02F1140CC2F10C0201FA0CF010
:1003000021FA02F10CE002F11402D8BFC2F1200C74
:1003100001FA02F120FA0CFCDCBF41EA0C0190402A
:10032000E41AA2BF01EB0451294330BD6FEA040473
:100330001F3C1CDA0C340EDC04F11404C4F120025E
:1003400020FA04F001FA02F340EA030021FA04F370
:1003500045EA030130BDC4F10C04C4F1200220FAC7
:1003600002F001FA04F340EA0300294630BD21FA05
:1003700004F0294630BD94F0000F83F4801306BFCB
:1003800081F480110134013D4EE77FEA645C18BFBF
:100390007FEA655C29D094EA050F08BF90EA020F56
:1003A00005D054EA000C04BF1946104630BD91EA4E
:1003B000030F1EBF0021002030BD5FEA545C05D151
:1003C0004000494128BF41F0004130BD14F5800490
:1003D0003CBF01F5801130BD01F0004545F0FE4104
:1003E00041F470014FF0000030BD7FEA645C1ABF39
:1003F000194610467FEA655C1CBF0B46024650EA70
:10040000013406BF52EA033591EA030F41F400219B
:1004100030BD00BF90F0000F04BF0021704730B521
:100420004FF4806404F132044FF000054FF00001F6
:1004300050E700BF90F0000F04BF0021704730B5B7
:100440004FF4806404F1320410F0004548BF40428C
:100450004FF000013EE700BF42004FEAE2014FEAE1
:1004600031014FEA02701FBF12F07F4393F07F4FBC
:1004700081F06051704792F0000F14BF93F07F4FEE
:10048000704730B54FF4607401F0004521F0004131
:1004900020E700BF50EA010208BF704730B54FF0B7
:1004A00000050AE050EA010208BF704730B511F0BC
:1004B000004502D5404261EB41014FF4806404F1F4
:1004C00032045FEA915C3FF4DCAE4FF003025FEA76
:1004D000DC0C18BF03325FEADC0C18BF033202EBFE
:1004E000DC02C2F1200300FA03FC20FA02F001FA58
:1004F00003FE40EA0E0021FA02F11444C1E600BFF7
:1005000070B54FF0FF0C4CF4E06C1CEA11541DBFA9
:100510001CEA135594EA0C0F95EA0C0F00F0DEF874
:100520002C4481EA030621EA4C5123EA4C5350EA59
:10053000013518BF52EA033541F4801143F48013AA
:1005400038D0A0FB02CE4FF00005E1FB02E506F03B
:100550000042E0FB03E54FF00006E1FB03569CF090
:10056000000F18BF4EF0010EA4F1FF04B6F5007F96
:1005700064F5407404D25FEA4E0E6D4146EB060608
:1005800042EAC62141EA55514FEAC52040EA5E5091
:100590004FEACE2EB4F1FD0C88BFBCF5E06F1ED83B
:1005A000BEF1004F08BF5FEA500E50F1000041EB72
:1005B000045170BD06F0004646EA010140EA02001F
:1005C00081EA0301B4EB5C04C2BFD4EB0C0541EA41
:1005D000045170BD41F480114FF0000E013C00F356
:1005E000AB8014F1360FDEBF002001F0004170BD7A
:1005F000C4F10004203C35DA0C341BDC04F1140493
:10060000C4F1200500FA05F320FA04F001FA05F21E
:1006100040EA020001F0004221F0004110EBD370EB
:1006200021FA04F642EB06015EEA430E08BF20EA17
:10063000D37070BDC4F10C04C4F1200500FA04F3BA
:1006400020FA05F001FA04F240EA020001F000414C
:1006500010EBD37041F100015EEA430E08BF20EABF
:10066000D37070BDC4F1200500FA05F24EEA020E07
:1006700020FA04F301FA05F243EA020321FA04F036
:1006800001F0004121FA04F220EA020000EBD370ED
:100690005EEA430E08BF20EAD37070BD94F0000FED
:1006A0000FD101F00046400041EB010111F4801F21
:1006B00008BF013CF7D041EA060195F0000F18BFD2
:1006C000704703F00046520043EB030313F4801F0E
:1006D00008BF013DF7D043EA0603704794EA0C0FC8
:1006E0000CEA135518BF95EA0C0F0CD050EA4106DE
:1006F00018BF52EA4306D1D181EA030101F000415B
:100700004FF0000070BD50EA410606BF1046194682
:1007100052EA430619D094EA0C0F02D150EA01368E
:1007200013D195EA0C0F05D152EA03361CBF1046CF
:1007300019460AD181EA030101F0004141F0FE416E
:1007400041F470014FF0000070BD41F0FE4141F4F2
:10075000780170BD70B54FF0FF0C4CF4E06C1CEAF2
:1007600011541DBF1CEA135594EA0C0F95EA0C0FA7
:1007700000F0A7F8A4EB050481EA030E52EA033562
:100780004FEA013100F088804FEA03334FF0805583
:1007900045EA131343EA12634FEA022245EA1115B0
:1007A00045EA10654FEA00260EF000419D4208BF61
:1007B000964244F1FD0404F5407402D25B084FEA0E
:1007C0003202B61A65EB03055B084FEA32024FF4BA
:1007D00080104FF4002CB6EB020E75EB030E22BF17
:1007E000B61A754640EA0C005B084FEA3202B6EBD7
:1007F000020E75EB030E22BFB61A754640EA5C0086
:100800005B084FEA3202B6EB020E75EB030E22BF15
:10081000B61A754640EA9C005B084FEA3202B6EB16
:10082000020E75EB030E22BFB61A754640EADC00D5
:1008300055EA060E18D04FEA051545EA16754FEA37
:1008400006164FEAC30343EA52734FEAC2025FEA55
:100850001C1CC0D111F4801F0BD141EA00014FF0E4
:1008600000004FF0004CB6E711F4801F04BF0143B5
:100870000020B4F1FD0C88BFBCF5E06F3FF6AFAED1
:10088000B5EB030C04BFB6EB020C5FEA500C50F161
:10089000000041EB045170BD0EF0004E4EEA1131E4
:1008A00014EB5C04C2BFD4EB0C0541EA045170BDEB
:1008B00041F480114FF0000E013C90E645EA060E2F
:1008C0008DE60CEA135594EA0C0F08BF95EA0C0F5D
:1008D0003FF43BAF94EA0C0F0AD150EA01347FF4A5
:1008E00034AF95EA0C0F7FF425AF104619462CE77C
:1008F00095EA0C0F06D152EA03353FF4FDAE1046DF
:10090000194622E750EA410618BF52EA43067FF42F
:10091000C5AE50EA41047FF40DAF52EA43057FF4BF
:10092000EBAE12E700000000000000000000000035
:100930004FEA410212F5001215D211D56FF4787307
:10094000B3EB625212D94FEAC12343F0004343EAAA
:10095000505311F0004F23FA02F018BF4042704785
:100960004FF00000704750EA013005D111F000400F
:1009700008BF6FF0004070474FF00000704700BFA5
:100980004FEA4102B2F1E04324BFB3F5001CDCF1B1
:10099000FE5C0DD901F0004C4FEAC0024CEA5070E9
:1009A000B2F1004F40EB830008BF20F00100704718
:1009B00011F0804F21D113F13872BCBF01F000401B
:1009C000704741F480114FEA5252C2F11802C2F14D
:1009D000200C10FA0CF320FA02F018BF40F00100CE
:1009E0004FEAC1234FEAD32303FA0CFC40EA0C0080
:1009F00023FA02F34FEA4303CCE77FEA625307D1BD
:100A000050EA01331EBF4FF0FE4040F440007047F3
:100A100001F0004040F0FE4040F40000704700BF8D
:100A2000704700BFAFF30080AFF30080AFF30080EA
:100A3000FEE700BFAFF30080AFF30080AFF30080AC
:100A400072B640F60004C2F2000484F309884EF640
:100A50003473CEF200034FF040421A604EF68853D2
:100A6000CEF200034EF68852CEF20002126842F433
:100A700070021A604FF00004E1EE104A4EF63C732B
:100A8000CEF200031C604FF0060484F31488BFF319
:100A90006F8F40F20004C2F2000440F20045C2F23F
:100AA000000504E04FF05533236004F10404AC4228
:100AB000F8D340F20044C2F2000440F60005C2F24E
:100AC000000504E04FF05533236004F10404AC4208
:100AD000F8D305F0E5FB49F62875C0F6000540F6A9
:100AE0000004C2F2000405E02B68236004F1040452
:100AF00005F1040540F60003C2F200039C42F3D363
:100B000040F60004C2F2000445F63C15C2F20005AE
:100B100004E04FF00003236004F10404AC42F8D376
:100B2000FFF77EFF40F28814C0F6000403E023685C
:100B3000984704F1040440F28813C0F600039C4275
:100B4000F5D308F015FA40F28814C0F6000403E06B
:100B50002368984704F1040440F28813C0F60003A8
:100B60009C42F5D3FFF764FFAFF30080AFF3008042
:100B7000FEE700BFAFF30080AFF30080AFF300806B
:100B800072B6FEE7AFF30080AFF30080AFF30080F2
:100B900008B500F005FB4FF0200383F3118800F047
:100BA000BFFA00F0EDF900F0DBFA4FF0000383F339
:100BB000118800F025FB00F053F808BDAFF300806A
:100BC00010B483B0EFF309840194019B03F168032F
:100BD00001934EF63073CEF20003019A526E5A60C2
:100BE0004EF63073CEF200034EF63072CEF20002B3
:100BF000926802F168029A60019B83F309884FF0C2
:100C0000000383F3118803B010BC7047AFF300807A
:100C100008B54FF46D43CEF200034FF000029A6026
:100C20004FF46D43CEF200034FF44072C0F2FA521B
:100C3000DA604FF007004FF0100100F009F94FF0B3
:100C40000A004FF4007100F003F94FF00B004FF071
:100C5000800100F0FDF808BDAFF30080AFF3008025
:100C600010B483B04FF0200383F311884FF46D4329
:100C7000CEF200035B6803F40063002B5ED0EFF359
:100C800009840194019BA3F168030193019B83F301
:100C90000988019B4FF08072DA6140F6C853C2F2B6
:100CA00000039B6993F82330002B11D040F6C85302
:100CB000C2F200031B689A6840F6C853C2F20003F0
:100CC0009B699B689A4294BF00230123DBB210E02A
:100CD00040F6C853C2F200031B689A6840F6C85336
:100CE000C2F200039B699B689A4234BF0023012330
:100CF000DBB2002B08D0019A40F65153C0F6000336
:100D00009361F1EE10FA05E0019A40F65C53C0F6EB
:100D100000039361019B03F168024EF63073CEF23B
:100D200000035B680093009B53664EF63073CEF26F
:100D30000003009A42F001025A6003E04FF0000302
:100D400083F3118803B010BC704700BFAFF300807D
:100D500000F0A6F900F034FE00F0C2F900DF00BF99
:100D600003460A462DE9F04F2DED108AC2F80CD04B
:100D7000D3F80CD0BDEC108ABDE8F08FAFF3008043
:100D800008B500F0ADF94FF0000383F31188284651
:100D9000A04700F04DFF08BDAFF30080AFF3008027
:100DA00010B485B001900091019B03F003034FEA5A
:100DB000C30303934FF46143CEF20003019A4FEA59
:100DC00092004FF46142CEF2000201994FEA910184
:100DD00001F1C00152F82110039A4FF0FF0404FA08
:100DE00002F26FEA02021140039A009C04FA02F236
:100DF000114300F1C00243F822104FF46143CEF2D8
:100E00000003019A4FEA5212019901F01F014FF0BD
:100E1000010000FA01F102F1600243F822104FF4E0
:100E20006143CEF20003019A4FEA5212019901F098
:100E30001F014FF0010000FA01F143F8221005B044
:100E400010BC7047AFF30080AFF30080AFF30080B9
:100E500010B485B001900091019B03F003034FEAA9
:100E6000C30303934FF46D43CEF20003019A4FEA9C
:100E700092004FF46D42CEF2000201994FEA9101C7
:100E800001F1060152F82110039A4FF0FF0404FA11
:100E900002F26FEA02021140039A009C04FA02F285
:100EA000114300F1060243F8221005B010BC704750
:100EB00082B0019040F6C853C2F200039A6949F229
:100EC0009053C0F600039361FEE700BFAFF30080CC
:100ED00000B583B0FFF79CFE00F04AFB00F060FA1B
:100EE00001F046FA01F0B4FA00F0EAF940F65810C1
:100EF000C2F200004FF0400100F082FD024640F6D1
:100F0000C853C2F200039A6140F6C853C2F200030C
:100F10009B694FF0010283F8202040F6C853C2F2CB
:100F200000039A6940F20043C2F20003D36100F06B
:100F30009FF84FF0000383F3118862B640F6C85360
:100F4000C2F200039A6949F67043C0F60003936148
:100F50004FF00003009340F60000C2F200004FF48F
:100F6000AC714FF0010240F6B163C0F6000300F02F
:100F7000FFFD03B000BD00BFAFF30080AFF3008002
:100F800000B583B000F06CF940F6C853C2F200031C
:100F90009B6993F82330002B0BD040F6C853C2F264
:100FA00000039B6993F8232002F1FF32D2B283F849
:100FB000232040F6C853C2F200039B695A6A02F12B
:100FC00001025A6240F6B853C2F20003DB6803F133
:100FD000010240F6B853C2F20003DA6040F6B8539B
:100FE000C2F200031A6840F6B853C2F200039A42F4
:100FF00039D040F6B853C2F200031B689A6802F178
:10100000FF329A6025E0019BDB680093019B4FF063
:101010000002DA60019B1A6840F6B853C2F200037E
:101020005360019B1A6840F6B853C2F200031A607D
:1010300000F096F84FF0000383F31188019B1A69C2
:10104000009B104698474FF0200383F3118800F06F
:1010500067F840F6B853C2F200031B680193019B86
:101060009B68002BCFD003B000BD00BFAFF3008062
:1010700008B540F6A413C2F200031B68002B06D18A
:1010800040F6A813C2F200031B68002B05D049F2FA
:10109000B050C0F6000000F073F908BDAFF3008057
:1010A00008B540F6A413C2F200031B68002B06D15A
:1010B00040F6A813C2F200031B68002B05D049F2CA
:1010C000B850C0F6000000F05BF940F6A813C2F279
:1010D00000034FF001021A6008BD00BFAFF30080AB
:1010E00008B540F6A413C2F200031B68002B06D11A
:1010F00040F6A813C2F200031B68002B05DC49F27E
:10110000C050C0F6000000F03BF940F6A813C2F250
:1011100000034FF000021A6008BD00BFAFF300806B
:1011200008B540F6A413C2F200031B68002B06DDCD
:1011300040F6A813C2F200031B68002B05D049F249
:10114000C850C0F6000000F01BF940F6A813C2F228
:1011500000034FF001021A6008BD00BFAFF300802A
:1011600008B540F6A413C2F200031B68002B06DD8D
:1011700040F6A813C2F200031B68002B05DC49F2FD
:10118000D050C0F6000000F0FBF840F6A813C2F201
:1011900000034FF000021A6008BD00BFAFF30080EB
:1011A00008B54FF0200383F3118840F6A413C2F270
:1011B00000031B68002B06DB40F6A813C2F20003F5
:1011C0001B68002B05D049F2D850C0F6000000F093
:1011D000D7F840F6A413C2F200031B6803F1010222
:1011E00040F6A413C2F200031A604FF0000383F329
:1011F000118808BDAFF30080AFF30080AFF300802B
:1012000008B54FF0200383F3118840F6A413C2F20F
:1012100000031B68002B06DD40F6A813C2F2000392
:101220001B68002B05D049F2E050C0F6000000F02A
:10123000A7F840F6A413C2F200031B6803F1FF32C3
:1012400040F6A413C2F200031A604FF0000383F3C8
:10125000118808BDAFF30080AFF30080AFF30080CA
:1012600008B540F6A413C2F200031B68002B06DB8E
:1012700040F6A813C2F200031B68002B05DC49F2FC
:10128000E850C0F6000000F07BF808BDAFF3008026
:1012900008B540F6A413C2F200031B68002B06D168
:1012A00040F6A813C2F200031B68002B05DC49F2CC
:1012B000F050C0F6000000F063F808BDAFF3008006
:1012C00040F6AC13C2F200034FF040021A6040F641
:1012D000AC13C2F20003014A5A607047B4090020FF
:1012E00082B0019040F6AC13C2F200035A6840F697
:1012F000B853C2F20003DB68136040F6AC13C2F2CD
:1013000000035A6840F6C853C2F200039B69536059
:1013100040F6AC13C2F200035B68019A926A9A60CD
:1013200040F6AC13C2F200035B68019A92F82020E9
:101330001A7340F6AC13C2F200035B6803F11002AB
:1013400040F6AC13C2F200035A6040F6AC13C2F28E
:1013500000035A68054B9A4205D340F6AC13C2F21B
:101360000003034A5A6002B0704700BFB40D00206A
:10137000B4090020AFF30080AFF30080AFF300802A
:1013800000B583B0019040F6B453C2F20003019A55
:101390001A60FFF7F5FB03B000BD00BFAFF300809C
:1013A00040F6B853C2F2000340F6B852C2F200024F
:1013B0005A6040F6B853C2F200035A6840F6B85378
:1013C000C2F200031A6040F6B853C2F200034FF0B5
:1013D000FF329A6040F6B853C2F200034FF00002A9
:1013E000DA607047AFF30080AFF30080AFF30080A6
:1013F00000B587B00390029101920093FFF730FF90
:10140000039B002B05D0019B002B02D0029B002BDD
:1014100005D149F20060C0F60000FFF7B1FF039B61
:10142000009A1A61039B019ADA6040F6B853C2F23F
:1014300000031B68059307E0059B9B68029AD31A7B
:101440000293059B1B680593059B9A68029B9A4231
:10145000F2D3039B059A1A60039B1B685A68039B8F
:101460005A60039B5B68059A03995160059A52681C
:101470001A60039B029A9A60059A40F6B853C2F22A
:1014800000039A4205D0059B9A68029BD21A059BDD
:101490009A6007B000BD00BFAFF30080AFF30080DB
:1014A00000B583B00190FFF7DBFE019B002B05D157
:1014B00049F21060C0F60000FFF762FF019BDB6895
:1014C000002B05D149F22060C0F60000FFF758FF5D
:1014D000019B1A6840F6B853C2F200039A4208D042
:1014E000019B1B68019A12689168019A92688A1898
:1014F0009A60019B5B68019A12681A60019B1B68E5
:10150000019A52685A60019B4FF00002DA6003B002
:1015100000BD00BFAFF30080AFF30080AFF30080E9
:1015200084B00190019B1B680393039B1A68019B85
:101530001A60019B1B68019A5A60039B184604B00D
:10154000704700BFAFF30080AFF30080AFF30080BF
:1015500082B00190019B5B68019A12681A60019B3E
:101560001B68019A52685A60019B184602B0704786
:1015700040F6C853C2F2000340F6C852C2F200025D
:101580005A6040F6C853C2F200035A6840F6C85386
:10159000C2F200031A6040F6C853C2F200034FF0D3
:1015A00000029A6040F6C853C2F2000340F6C852E7
:1015B000C2F200025A6140F6C853C2F200035A69EF
:1015C00040F6C853C2F200031A617047AFF30080BF
:1015D00000B585B00190FFF743FE019B93F82030E2
:1015E000002B04D0019B93F820300E2B05D149F23B
:1015F0004060C0F60000FFF7C3FE019B4FF0000201
:1016000083F8202040F6C853C2F200030393039BE3
:101610001B680393039B9A68019B9B689A42F6D2CE
:10162000019B039A1A60039B5A68019B5A60019BB5
:101630005B68039A01995160039A52681A60019B92
:10164000184605B000BD00BFAFF30080AFF30080C7
:1016500000B585B003468DF80730FFF719FE40F658
:10166000C853C2F200039B690393039B9DF80720B4
:1016700083F82020039B4FF0140283F8232040F6C8
:10168000C850C2F20000FFF74BFF024640F6C853B5
:10169000C2F200039A6140F6C853C2F200039B698C
:1016A0004FF0010283F820200398FFF719FE6B46E4
:1016B000A3F16402039BDB699A4205D249F25460AC
:1016C000C0F60000FFF75CFE40F6C853C2F200030C
:1016D0009B6918460399FFF743FB05B000BD00BFA7
:1016E00000B585B00190019B03934FF0200383F375
:1016F0001188FFF715FD039B93F820300D2B2FD891
:1017000001A252F823F000BF41170008611700083A
:10171000611700084F170008611700085B170008E1
:1017200061170008611700086117000861170008B9
:101730006117000861170008611700085B170008AF
:10174000FFF70EFD4FF0000383F3118815E0039BB4
:101750009B6A9A6802F101029A600398FFF7F8FE0B
:10176000039B4FF0FF329A620398FFF731FFFFF7B8
:10177000F7FC4FF0000383F3118805B000BD00BFF4
:1017800000B589B0034600918DF80730FFF780FD62
:10179000009BB3F1FF3F1AD040F6C853C2F20003DA
:1017A0009B6903AA1046009941F2E162C0F600026B
:1017B000FFF71EFE9DF807301846FFF749FF069B0E
:1017C000002B09D003AB1846FFF76AFE04E09DF832
:1017D00007301846FFF73CFF40F6C853C2F200033B
:1017E0009B699B6A184609B000BD00BFAFF300803B
:1017F00000B585B001900091FFF74AFD019B009A6A
:101800009A62019B9A6840F6C853C2F200039B6932
:101810009B689A4203D80198FFF7DAFE27E040F66A
:10182000C853C2F200039B691846FFF7D1FE03902C
:1018300040F6C853C2F20003019A9A61019B4FF02F
:10184000010283F820200398FFF74AFD6B46A3F1BD
:101850006402039BDB699A4205D249F25460C0F6E8
:101860000000FFF78DFD01980399FFF779FA05B0A5
:1018700000BD00BFAFF30080AFF30080AFF3008086
:1018800000B583B040F6C853C2F200039B690193D0
:1018900040F6C850C2F20000FFF742FE024640F692
:1018A000C853C2F200039A6140F6C853C2F2000363
:1018B0009B694FF0010283F82020019B4FF0140236
:1018C00083F823200198FFF783FE0198FFF708FDB6
:1018D0006B46A3F16402019BDB699A4205D249F28F
:1018E0005460C0F60000FFF74BFD40F6C853C2F24B
:1018F00000039B6918460199FFF732FA03B000BD57
:1019000000B583B040F6C853C2F200039B69009350
:1019100040F6C850C2F20000FFF702FE024640F651
:10192000C853C2F200039A6140F6C853C2F20003E2
:101930009B694FF0010283F82020009B4FF00002CA
:1019400083F8202040F6C853C2F200030193019BA4
:101950001B680193019B9A68009B9B689A42F6D88A
:10196000009B019A1A60019B5A68009B5A60009B79
:101970005B68019A00995160019A52681A60009858
:10198000FFF7AEFC6B46A3F16402009BDB699A4251
:1019900005D249F25460C0F60000FFF7F1FC40F6B2
:1019A000C853C2F200039B6918460099FFF7D8F9A3
:1019B00003B000BDAFF30080AFF30080AFF3008051
:1019C00008B540F6C853C2F200039B6993F8233070
:1019D000002B02D1FFF754FF01E0FFF791FF08BD94
:1019E00084B00190019B1B680393039B1A68019BC1
:1019F0001A60039B184604B0704700BFAFF3008025
:101A000082B001900091019B009A9A60019B4FF077
:101A1000020283F82020019B4FF0000283F821206E
:101A2000019B4FF0140283F82320019B009A5A6413
:101A3000019B4FF000021A64019B4FF00002DA6331
:101A4000019B4FF000025A62019B4FF0010283F8A4
:101A50002220019B4FF000029A61019A40F6C85380
:101A6000C2F20003136140F6C853C2F200035A6980
:101A7000019B5A61019B5A6940F6C853C2F20003A8
:101A80000199596140F6C853C2F200035B691361C2
:101A9000019B03F12C02019BDA62019B03F13002EE
:101AA000019B5A63019B5A6B019B1A63019B03F1D3
:101AB0004C02019BDA61019B184602B0704700BFDF
:101AC00084B00390029113468DF8073007E0039B22
:101AD0009DF807201A70039B03F101030393039AF7
:101AE000029B9A42F3D304B0704700BFAFF300806B
:101AF00000B587B00390029101920093039B059378
:101B0000FFF7AEFB039B002B0AD0029A40F237137B
:101B10009A4205D9019B7F2B02D8009B002B05D14F
:101B200049F27060C0F60000FFF72AFC029BA3F1A7
:101B30006403039AD218059BDA60059BDB68009A60
:101B40001A64059BDB68089A5A64059BDA6840F6BC
:101B50008153C0F60003136605980199FFF750FF03
:101B60000346184607B000BDAFF30080AFF3008016
:101B700000B589B00590049103920293059B03F18F
:101B80004C03059819464FF0FF02FFF799FF059B9C
:101B900003F14C020599049BCB18104619464FF0EF
:101BA0005502FFF78DFF4FF0200383F31188FFF7F5
:101BB00077FA0A9B009305980499039A029BFFF712
:101BC00097FF079007984FF00001FFF711FEFFF70E
:101BD00087FA4FF0000383F31188079B184609B07A
:101BE00000BD00BFAFF30080AFF30080AFF3008013
:101BF00000B583B00190019B002B05D149F2B06084
:101C0000C0F60000FFF7BCFB4FF0200383F3118800
:101C1000FFF746FA4FF006000199FFF7B1FDFFF715
:101C20005FFA4FF0000383F3118803B000BD00BFDB
:101C300000B583B001904FF0200383F31188FFF7C4
:101C40002FFA019800F004F803B000BDAFF3008054
:101C500000B585B0019040F6C853C2F200039B69FD
:101C60000393039B019A9A6209E0039B03F12C03FF
:101C70001846FFF7B5FE03461846FFF7A9FC039B7D
:101C8000DA6A039B03F12C039A42EED1039B93F88B
:101C9000213003F00303002B09D1039B5B69039AF6
:101CA00012691A61039B1B69039A52695A614FF0CA
:101CB0000E00FFF7CDFC49F2C060C0F60000FFF750
:101CC0005FFB05B000BD00BFAFF30080AFF3008045
:101CD00000B583B00190019B002B05D149F2107033
:101CE000C0F60000FFF74CFB019A019B5A60019B74
:101CF0005A68019B1A60019B4FF000029A6003B082
:101D000000BD00BFAFF30080AFF30080AFF30080F1
:101D100000B585B001900091FFF7A2FA019B002B5E
:101D200005D149F2EC70C0F60000FFF729FB019BDA
:101D30001B68039310E0039BDA68009B1A43039B24
:101D4000DA60039B5A68039B9B681046194600F0B3
:101D50000FF8039B1B680393039A019B9A42EAD1F5
:101D600005B000BDAFF30080AFF30080AFF300809B
:101D700000B583B001900091FFF772FA019B002B30
:101D800005D149F61400C0F60000FFF7F9FA019BEF
:101D9000DA6B009B1A43019BDA63019B93F82030B6
:101DA000082B06D1019BDA6B019B9B6A1340002B29
:101DB0000DD1019B93F82030092B0FD1019BDA6BD9
:101DC000019B9B6A1A40019B9B6A9A4206D101982B
:101DD000FFF7FEFB03464FF000029A6203B000BD1E
:101DE00082B001900091019B009A1A60009B5A6892
:101DF000019B5A60019B5B68009A01995160009AAF
:101E000052681A6002B07047AFF30080AFF30080F1
:101E100084B00190019B1B680393039B1A68019B8C
:101E20001A60019B1B68019A5A60039B184604B014
:101E3000704700BFAFF30080AFF30080AFF30080C6
:101E400000B583B001900091009B002B02D14FF0B0
:101E5000FF3316E040F6C853C2F200039B69019AB3
:101E60009A6240F6C853C2F200039A69019B104679
:101E70001946FFF7B5FF4FF00D000099FFF780FC02
:101E80000346184603B000BDAFF30080AFF30080F7
:101E900084B00390029101920093039A039B5A60CD
:101EA000039B5A68039B1A60039B4FF000029A60E1
:101EB000039B029A5A61039B5A69039B9A61039B95
:101EC0009A69039BDA60029A019BD218039B1A61FC
:101ED000039B009ADA61039B049A1A6204B070476C
:101EE00000B583B001900B468DF80330FFF7B8F9C9
:101EF000019B5A69019B9B699A4206D1019B9B6891
:101F0000002B02D04FF0010301E04FF0000303F07B
:101F10000103DBB2002B02D06FF003032BE0019B27
:101F20009B6803F10102019B9A60019B5B699DF82C
:101F300003201A7003F10102019B5A61019B5A6947
:101F4000019B1B699A4203D3019BDA68019B5A618A
:101F5000019B1A68019B9A420BD0019B1846FFF720
:101F600057FF03461846FFF733FB03464FF00002C6
:101F70009A624FF00003184603B000BDAFF3008033
:101F800000B585B0019000914FF0200383F31188D4
:101F9000FFF786F8019BDB69002B14D0019BDB69FE
:101FA000019898470FE001980099FFF749FF0390C7
:101FB000039B002B08DAFFF793F84FF0000383F33D
:101FC0001188039B25E000BF019B9B68002BEAD092
:101FD000019B9B6803F1FF32019B9A60019B9B6907
:101FE0001A788DF80B2003F10102019B9A61019B85
:101FF0009A69019B1B699A4203D3019BDA68019B92
:102000009A61FFF76DF84FF0000383F311889DF894
:102010000B30184605B000BDAFF30080AFF3008071
:1020200000B587B00390029101920093039BDB6996
:1020300004934FF000030593019B002B05D149F653
:102040005000C0F60000FFF79BF94FF0200383F328
:102050001188FFF725F8049B002B12D0049B0398EE
:1020600098470EE003980099FFF7EAFE0346002B1D
:1020700008D0FFF735F84FF0000383F31188059B74
:102080003BE000BF039B9B68002BEBD0039B9B684E
:1020900003F1FF32039B9A60039B9B691978029AB4
:1020A0001170029A02F10102029203F10102039BF4
:1020B0009A61039B9A69039B1B699A4203D3039B12
:1020C000DA68039B9A61FFF70BF84FF0000383F384
:1020D0001188059B03F101030593019B03F1FF3375
:1020E0000193019B002B01D1059B06E04FF02003DB
:1020F00083F31188FEF7D4FFADE7184607B000BDA3
:1021000084B00390029101920093039A039B5A605A
:10211000039B5A68039B1A60039B019A9A60039B76
:10212000029A5A61039B5A69039B9A61039B9A69BD
:10213000039BDA60029A019BD218039B1A61039BEE
:10214000009ADA61039B049A1A6204B0704700BFD8
:1021500000B587B003900B4601928DF80B304FF01D
:10216000200383F31188FEF79BFF0FE0039801998A
:10217000FFF766FE0590059B002B07DAFEF7B0FF20
:102180004FF0000383F31188059B2CE0039B9B68B1
:10219000002BEBD0039B9B6803F1FF32039B9A60FB
:1021A000039B5B699DF80B201A7003F10102039BEE
:1021B0005A61039B5A69039B1B699A4203D3039B91
:1021C000DA68039B5A61039BDB69002B03D0039BF6
:1021D000DB6903989847FEF783FF4FF0000383F312
:1021E00011884FF00003184607B000BDAFF3008020
:1021F00000B585B00190FFF733F8019B5A69019B48
:102200009B699A4206D1019B9B68002B02D04FF03C
:10221000010301E04FF0000303F00103DBB2002BE8
:1022200002D06FF002032BE0019B9B6803F10102D7
:10223000019B9A60019B9B691A788DF80F2003F12E
:102240000102019B9A61019B9A69019B1B699A4259
:1022500003D3019BDA68019B9A61019B1A68019B79
:102260009A420BD0019B1846FFF7D2FD0346184651
:10227000FFF7AEF903464FF000029A629DF80F3067
:10228000184605B000BD00BFAFF30080AFF300807B
:1022900000B587B00390029101920093039BDB6924
:1022A00004934FF000030593019B002B05D149F6E1
:1022B0006400C0F60000FFF763F84FF0200383F3DB
:1022C0001188FEF7EDFE0EE003980099FFF7B8FDC8
:1022D0000346002B07D0FEF703FF4FF0000383F304
:1022E0001188059B41E0039B9B68002BECD0039B6E
:1022F0009B6803F1FF32039B9A60039B5B69029A20
:1023000012781A7003F10102039B5A61029B03F1D8
:1023100001030293039B5A69039B1B699A4203D3EF
:10232000039BDA68039B5A61049B002B02D0049B39
:1023300003989847FEF7D4FE4FF0000383F311880B
:10234000059B03F101030593019B03F1FF33019307
:10235000019B002B01D1059B07E04FF0200383F385
:102360001188FEF79DFE00BFBDE7184607B000BD0F
:1023700045F63C13C2F2000303F1070323F0070301
:102380001A4640F6E453C2F200031A604CF200030E
:10239000C2F2010323F007031A4640F6E853C2F2E3
:1023A00000031A60704700BFAFF30080AFF30080F6
:1023B00000B585B001904FF0200383F31188FEF73C
:1023C0006FFE019800F00CF80390FEF789FE4FF0C5
:1023D000000383F31188039B184605B000BD00BFBE
:1023E00000B585B00190FEF73BFF019B03F10703A9
:1023F00023F00703019340F6E853C2F200031B6881
:102400001A4640F6E453C2F200031B68D31A1A4678
:10241000019B9A4202D24FF0000312E040F6E453CF
:10242000C2F200031B68039340F6E453C2F20003B8
:102430001A68019BD21840F6E453C2F200031A60F6
:10244000039B184605B000BDAFF30080AFF30080DA
:1024500008B540F6F053C2F2000342F2B132C0F6C2
:1024600000021A6040F6F053C2F200034FF000027F
:102470009A6040F6F053C2F200034FF00002DA60B7
:102480000148FFF725FC08BD000E0020AFF30080D7
:1024900008B501F00DFB49F6A050C0F6000002F0AF
:1024A000EFFE00F015F800F043F800F059F800F0E6
:1024B0006FF800F08DF800F0B3FD00F099F900F02E
:1024C0005FFE00F03DF903F023FF08BDAFF300808D
:1024D00008B501F0CDFD08BDAFF30080AFF300807B
:1024E00000B583B00190019B4FF001021A70019B6F
:1024F0004FF000025A60019B4FF000029A60019B6E
:102500004FF00002DA60019B4FF000021A61019B5C
:102510004FF000025A61019B03F118031846FFF7C0
:10252000D7FB03B000BD00BFAFF30080AFF3008066
:1025300008B502F095F808BDAFF30080AFF3008056
:1025400082B00190019B4FF001021A70019B4FF085
:1025500000025A6002B07047AFF30080AFF3008012
:1025600008B503F02DFB08BDAFF30080AFF300808A
:1025700082B00190019B4FF001021A70019B4FF055
:1025800000025A6002B07047AFF30080AFF30080E2
:1025900008B503F0CDF808BDAFF30080AFF30080BD
:1025A00000B583B00190019B4FF001021A70019BAE
:1025B0004FF000025A60019B03F10C031846FFF72D
:1025C00087FB03B000BD00BFAFF30080AFF3008016
:1025D00008B503F0C5FB08BDAFF30080AFF3008082
:1025E00082B00190019B4FF001021A70019B4FF0E5
:1025F00000025A6002B07047AFF30080AFF3008072
:1026000000B589B0039002910192029A019B9A420F
:1026100004D3029A019BD31A1F2B05D949F68000D7
:10262000C0F60000FEF7ACFE019B4FEA5313079380
:10263000019B03F01F030693029B4FEA531305937C
:10264000029B03F01F0303F101034FF0010202FAA2
:1026500003F303F1FF330493079A059B9A4217D2C1
:10266000079B4FEA8303039AD3181A68069B22FA42
:1026700003F2059B4FEA83030399CB181968049B67
:102680001940069BC3F1200301FA03F313430AE048
:10269000079B4FEA8303039AD3181A68049B1A40D6
:1026A000069B22FA03F3184609B000BDAFF3008081
:1026B00000B587B00190019B03F10C031B684FEA42
:1026C0009373002B02D0012B26D032E001984FF0FB
:1026D00049014FF03E02FFF793FF059001984FF03C
:1026E00031014FF02F02FFF78BFF049001984FF05C
:1026F00053014FF05002FFF783FF0390059B03F156
:102700000102049B03F1020302FA03F2039BA3F10B
:10271000090302FA03F30EE001984FF045014FF070
:102720003002FFF76DFF034603F101034FEA8323F5
:1027300001E04FF00003184607B000BDAFF3008082
:1027400008B503F01DF808BDAFF30080AFF30080BB
:1027500000B583B00190019B002B05D149F6A00084
:10276000C0F60000FEF70CFE019803F0C1F8034626
:10277000184603B000BD00BFAFF30080AFF3008088
:1027800000B585B00190019B9A6B03AB01984FF0A7
:102790000D0102F0E5FA0346002B07D1039A4EF231
:1027A0000803CFF6FF531340002B02D04FF0010374
:1027B00015E0039B4FEA532303F00F03042B04D0CF
:1027C000042B0AD3072B08D802E04FF0000306E0E1
:1027D0004FF00100FFF70CFAD5E74FF00103184660
:1027E00005B000BDAFF30080AFF30080AFF3008011
:1027F00008B502F035F908BDAFF30080AFF30080F3
:1028000082B00190019A49F69043C0F6000313602C
:10281000019B4FF001021A71019B4FF000025A63B5
:10282000019B4FF00002DA62019B4FF000029A62B6
:1028300002B07047AFF30080AFF30080AFF30080C9
:1028400000B583B001900091019B002B05D149F6A2
:10285000E000C0F60000FEF793FD4FF0200383F385
:102860001188FEF71DFC019B1B79012B09D0019BF0
:102870001B79022B05D049F6F000C0F60000FEF7E8
:102880007FFD019B009ADA62019802F009F9019B31
:102890004FF002021A71FEF723FC4FF0000383F39E
:1028A000118803B000BD00BFAFF30080AFF300801C
:1028B00000B587B00190019B002B05D149F61C1093
:1028C000C0F60000FEF75CFD019B1B79022B09D0CE
:1028D000019B1B79052B05D049F62C10C0F6000092
:1028E000FEF74EFD019B4FF003021A71019802F0B2
:1028F00047F901984FF000014FF0000202F0C0F9D3
:1029000003AB01984FF008014FF4D57202F028FA9A
:10291000034683F00103DBB2002B21D0019B4FF073
:1029200001021A63039B4FEA132303F00F03012BE9
:1029300040F0FA8003AB01984FF037014FF00002EE
:1029400002F00EFA0346002B40F0FD80039A4EF28F
:102950000803CFF6FF531340002B40F0F48003E050
:10296000019B4FF000021A63019B1B6B03F00F03E6
:10297000012B05D14FF00003CCF21003049304E0C7
:102980004FF00003C8F2100304934FF000030593C7
:1029900003AB01984FF037014FF0000202F0E0F96D
:1029A0000346002B40F0CF80039A4EF20803CFF687
:1029B000FF531340002B40F0C68003AB01984FF04B
:1029C0002901049A02F084F90346002B40F0AE80FE
:1029D000039B002B0BDA039B03F08043002B13D0E7
:1029E000019B1B6B43F01002019B1A630CE0059BDB
:1029F00003F101030593059B632B00F299804FF0CF
:102A00000A00FFF7F5F8C3E700BF019B03F10803D5
:102A100001984FF002014FF0000202F0E9F903467D
:102A2000002B40F08780019B03F1380301984FF0A1
:102A300003014FF0000202F093F90346002B7BD113
:102A4000019B9A6B019B03F1180301984FF0090158
:102A500002F0CEF90346002B70D1019802F0B8F8CD
:102A6000019B9A6B03AB01984FF0070102F078F9D4
:102A70000346002B64D103AB01984FF010014FF4D3
:102A8000007202F06DF90346002B5CD1039A4EF2FE
:102A90000803CFF6FF531340002B54D1019B1B6B4F
:102AA00003F00F03012B2BD801984FF0010102F026
:102AB000B7F8019B9A6B03AB01984FF0370102F016
:102AC0004FF90346002B3ED1039A4EF20803CFF68E
:102AD000FF531340002B36D103AB01984FF0060192
:102AE0004FF0020202F03CF90346002B2BD1039A6F
:102AF0004EF20803CFF6FF531340002B23D100BF43
:102B0000019B03F118031846FFF7D2FD0246019B13
:102B10009A62019B9B6A002B14D0019B4FF0050227
:102B20001A714FF0000317E000BF0CE000BF0AE08D
:102B300000BF08E000BF06E000BF04E000BF02E005
:102B400000BF00E000BF019802F052F8019B4FF077
:102B500002021A714FF00103184607B000BD00BF12
:102B600000B583B00190019B002B05D149F64010C0
:102B7000C0F60000FEF704FC4FF0200383F3118839
:102B8000FEF78EFA019B1B79022B09D0019B1B7962
:102B9000052B05D049F65410C0F60000FEF7F0FBF7
:102BA000019B1B79022B08D1FEF79AFA4FF0000324
:102BB00083F311884FF0000322E0019B4FF00402E1
:102BC0001A71FEF78DFA4FF0000383F31188019814
:102BD000FFF7D6FD0346002B09D0019802F008F854
:102BE000019B4FF002021A714FF0010308E00198B7
:102BF00001F0FEFF019B4FF002021A714FF000033B
:102C0000184603B000BD00BFAFF30080AFF30080F3
:102C100000B587B00390029101920093039B002BB3
:102C200005D0019B002B02D0009B002B05D149F65B
:102C30006810C0F60000FEF7A3FB039B1B79052B71
:102C400005D049F67410C0F60000FEF799FB029A11
:102C5000009BD31803F1FF32039B9B6A9A4208D969
:102C6000039B5B6B43F08002039B5A634FF00103AD
:102C700012E0039B4FF006021A7103980299019A21
:102C8000009B02F02DFA03468DF81730039B4FF09E
:102C900005021A719DF81730184607B000BD00BF35
:102CA00000B587B00390029101920093039B002B23
:102CB00005D0019B002B02D0009B002B05D149F6CB
:102CC0008410C0F60000FEF75BFB039B1B79052B0D
:102CD00005D049F69410C0F60000FEF751FB029AA9
:102CE000009BD31803F1FF32039B9B6A9A4208D9D9
:102CF000039B5B6B43F08002039B5A634FF001031D
:102D000012E0039B4FF007021A7103980299019A8F
:102D1000009B02F035FA03468DF81730039B4FF005
:102D200005021A719DF81730184607B000BD00BFA4
:102D300000B585B00190019B002B05D149F6DC1050
:102D4000C0F60000FEF71CFB019B1B79052B02D08F
:102D50004FF001030FE0019B4FF008021A71019838
:102D600002F05EFA03468DF80F30019B4FF005022A
:102D70001A719DF80F30184605B000BDAFF3008002
:102D800000B583B001900091019B002B02D0009B05
:102D9000002B05D149F6E810C0F60000FEF7F0FA66
:102DA000019B1B79052B02D04FF0010309E0019B29
:102DB0009A6A009B5A60009B4FF400721A604FF0B1
:102DC0000003184603B000BDAFF30080AFF30080EE
:102DD00000B587B0039002910192039B002B05D1AF
:102DE00049F6F810C0F60000FEF7CAFA039B1B79FB
:102DF000052B05D049F60820C0F60000FEF7C0FA02
:102E0000039B4FF007021A71039B1B6B03F0100327
:102E1000002B07D1029B4FEA43230293019B4FEA09
:102E2000432301930398FFF7ABFC05AB03984FF0E6
:102E30002001029A01F094FF0346002B36D1059A37
:102E40004EF20803CFF6FF531340002B2ED105ABF3
:102E500003984FF02101019A01F082FF0346002BF5
:102E600024D1059A4EF20803CFF6FF531340002BEE
:102E70001CD105AB03984FF026014FF0000201F082
:102E80006FFF0346002B11D1059A4EF20803CFF6CF
:102E9000FF531340002B09D10398FFF771FC039BEC
:102EA0004FF005021A714FF0000305E0039B4FF04D
:102EB00005021A714FF00103184607B000BD00BFAC
:102EC00000B585B0039002910192039B03F130039A
:102ED00018460299019A4FF0FF33FFF7D9F90346DC
:102EE000184605B000BD00BFAFF30080AFF300800F
:102EF00000B585B0039002910192039B03F10C038E
:102F000018460299019A4FF0FF33FFF789F80346FC
:102F1000184605B000BD00BFAFF30080AFF30080DE
:102F200000B583B001900B468DF80330019B03F18F
:102F300030029DF80330104619464FF0FF32FFF77C
:102F400007F90346184603B000BD00BFAFF3008089
:102F500000B583B00190019B03F10C0318464FF0BC
:102F6000FF31FFF70DF80346184603B000BD00BF60
:102F700000B585B003900B4601928DF80B30039B92
:102F800003F130029DF80B3010461946019AFFF705
:102F9000DFF80346184605B000BD00BFAFF3008060
:102FA00000B583B001900091019B03F10C0318461A
:102FB0000099FEF7E5FF0346184603B000BD00BFC9
:102FC00000B585B00390029101920093039B03F139
:102FD000300318460299019A009BFFF759F90346FE
:102FE000184605B000BD00BFAFF30080AFF300800E
:102FF00000B585B00390029101920093039B03F109
:103000000C0318460299019A009BFFF709F8034642
:10301000184605B000BD00BFAFF30080AFF30080DD
:1030200008B503F08DF808BDAFF30080AFF3008062
:1030300000B587B0059004910392059A49F6B04314
:10304000C0F600031360059B03F10402059B5A6060
:10305000059B4FF001021A72059B03F10C02059BC0
:1030600003F1540305990091104619464FF04002B0
:10307000049BFEF70DFF059B03F13002059B03F156
:10308000940305990091104619464FF04002039BA6
:10309000FFF736F807B000BDAFF30080AFF3008054
:1030A00000B583B001900091019B002B05D149F63A
:1030B0002020C0F60000FEF763F94FF0200383F3F1
:1030C0001188FDF7EDFF019B1B7A012B09D0019BB5
:1030D0001B7A022B05D049F62C20C0F60000FEF723
:1030E0004FF90198009903F073F8019B4FF0020229
:1030F0001A72FDF7F5FF4FF0000383F3118803B058
:1031000000BD00BFAFF30080AFF30080AFF30080DD
:1031100000B583B001900B468DF80330FEF7A0F8A0
:10312000019B002B05D149F65820C0F60000FEF7A0
:1031300027F9019B5B69002B07D1019B03F1040375
:1031400018464FF00401FEF7E3FD019B03F10C026A
:103150009DF8033010461946FEF7C2FE0346002BC9
:1031600007DA019B03F1040318464FF08001FEF7D4
:10317000CFFD03B000BD00BFAFF30080AFF3008010
:1031800008B502F07DFC08BDAFF30080AFF300800E
:1031900000B583B00190019B4FF001021A70019BB2
:1031A0004FF000025A60019B4FF000029A60019BB1
:1031B00003F10C031846FEF78BFD03B000BD00BF02
:1031C00000B583B0FDF7ECFF4FF4C043C4F2020337
:1031D0001B6803F03D0301934FF4C043C4F20203A4
:1031E0004FF03D029A6040F61463C2F200031B6880
:1031F000002B0CD040F61463C2F200031A6840F6AC
:103200001463C2F200035B68184601999047FDF70A
:10321000F7FFFDF725FD03B000BD00BFAFF3008051
:1032200000B583B0FDF7BCFF4FF4C043C4F2020306
:103230001B684FEA931303F03D0301934FF4C0431F
:10324000C4F202034FF474629A6040F61463C2F24F
:1032500000039B68002B0CD040F61463C2F20003FD
:103260009A6840F61463C2F20003DB6818460199BD
:103270009047FDF7C5FFFDF7F3FC03B000BD00BFAD
:1032800000B583B0FDF78CFF4FF4C043C4F20203D6
:103290001B684FEA134303F03D0301934FF4C0430F
:1032A000C4F202034FF474129A6040F61463C2F23F
:1032B00000031B69002B0CD040F61463C2F200031C
:1032C0001A6940F61463C2F200035B69184601995B
:1032D0009047FDF795FFFDF7C3FC03B000BD00BFAD
:1032E00000B583B0FDF75CFF4FF4C043C4F20203A6
:1032F0001B684FEA935303F03D0301934FF4C0431F
:10330000C4F202034FF074629A6040F61463C2F292
:1033100000039B69002B0CD040F61463C2F200033B
:103320009A6940F61463C2F20003DB6918460199FA
:103330009047FDF765FFFDF793FC03B000BD00BFAC
:1033400000B583B0FDF72CFF4FF4C043C4F2020375
:103350005B6803F03D0301934FF4C043C4F20203E2
:103360004FF03D02DA6040F61463C2F200031B6ABC
:10337000002B0CD040F61463C2F200031A6A40F628
:103380001463C2F200035B6A184601999047FDF787
:1033900037FFFDF765FC03B000BD00BFAFF3008051
:1033A00000B583B0FDF7FCFE4FF4C043C4F2020346
:1033B0005B684FEA931303F03D0301934FF4C0435E
:1033C000C4F202034FF47462DA6040F61463C2F28E
:1033D00000039B6A002B0CD040F61463C2F200037A
:1033E0009A6A40F61463C2F20003DB6A1846019938
:1033F0009047FDF705FFFDF733FC03B000BD00BFAC
:1034000000B583B0FDF7CCFE4FF4C043C4F2020315
:103410005B684FEA134303F03D0301934FF4C0434D
:10342000C4F202034FF47412DA6040F61463C2F27D
:1034300000031B6B002B0CD040F61463C2F2000398
:103440001A6B40F61463C2F200035B6B18460199D5
:103450009047FDF7D5FEFDF703FC03B000BD00BFAC
:1034600000B583B0FDF79CFE4FF4C043C4F20203E5
:103470005B684FEA935303F03D0301934FF4C0435D
:10348000C4F202034FF07462DA6040F61463C2F2D1
:1034900000039B6B002B0CD040F61463C2F20003B8
:1034A0009A6B40F61463C2F20003DB6B1846019975
:1034B0009047FDF7A5FEFDF7D3FB03B000BD00BFAD
:1034C00000B583B0FDF76CFE4FF4C843C4F20203AD
:1034D0001B6803F03D0301934FF4C843C4F2020399
:1034E0004FF03D029A6040F61463C2F200031B6C79
:1034F000002B0CD040F61463C2F200031A6C40F6A5
:103500001463C2F200035B6C184601999047FDF703
:1035100077FEFDF7A5FB03B000BD00BFAFF3008051
:1035200000B583B0FDF73CFE4FF4C843C4F202037C
:103530001B684FEA931303F03D0301934FF4C84314
:10354000C4F202034FF474629A6040F61463C2F24C
:1035500000039B6C002B0CD040F61463C2F20003F6
:103560009A6C40F61463C2F20003DB6C18460199B2
:103570009047FDF745FEFDF773FB03B000BD00BFAC
:1035800000B583B0FDF70CFE4FF4C843C4F202034C
:103590001B684FEA134303F03D0301934FF4C84304
:1035A000C4F202034FF474129A6040F61463C2F23C
:1035B00000031B6D002B0CD040F61463C2F2000315
:1035C0001A6D40F61463C2F200035B6D1846019950
:1035D0009047FDF715FEFDF743FB03B000BD00BFAC
:1035E00000B583B0FDF7DCFD4FF4C843C4F202031D
:1035F0001B684FEA935303F03D0301934FF4C84314
:10360000C4F202034FF074629A6040F61463C2F28F
:1036100000039B6D002B0CD040F61463C2F2000334
:103620009A6D40F61463C2F20003DB6D18460199EF
:103630009047FDF7E5FDFDF713FB03B000BD00BFAC
:1036400000B583B0FDF7ACFD4FF4C843C4F20203EC
:103650005B6803F03D0301934FF4C843C4F20203D7
:103660004FF03D02DA6040F61463C2F200031B6EB5
:10367000002B0CD040F61463C2F200031A6E40F621
:103680001463C2F200035B6E184601999047FDF780
:10369000B7FDFDF7E5FA03B000BD00BFAFF3008052
:1036A00000B583B0FDF77CFD4FF4C843C4F20203BC
:1036B0005B684FEA931303F03D0301934FF4C84353
:1036C000C4F202034FF47462DA6040F61463C2F28B
:1036D00000039B6E002B0CD040F61463C2F2000373
:1036E0009A6E40F61463C2F20003DB6E184601992D
:1036F0009047FDF785FDFDF7B3FA03B000BD00BFAD
:1037000000B583B0FDF74CFD4FF4C843C4F202038B
:103710005B684FEA134303F03D0301934FF4C84342
:10372000C4F202034FF47412DA6040F61463C2F27A
:1037300000031B6F002B0CD040F61463C2F2000391
:103740001A6F40F61463C2F200035B6F18460199CA
:103750009047FDF755FDFDF783FA03B000BD00BFAC
:1037600000B583B0FDF71CFD4FF4C843C4F202035B
:103770005B684FEA935303F03D0301934FF4C84352
:10378000C4F202034FF07462DA6040F61463C2F2CE
:1037900000039B6F002B0CD040F61463C2F20003B1
:1037A0009A6F40F61463C2F20003DB6F184601996A
:1037B0009047FDF725FDFDF753FA03B000BD00BFAC
:1037C00082B040F61063C2F200034FF000021A60AC
:1037D0004FF0000301931CE049F6D042C0F600020E
:1037E00001990B464FEA43035B184FEA8303D31852
:1037F0001B684FF000021A6040F61463C2F2000327
:10380000019A4FF0000143F83210019B03F10103CC
:103810000193019B0F2BDFDD4FF4C043C4F2020381
:103820004FF0FF329A604FF4C043C4F202034FF0EE
:10383000FF32DA604FF4C843C4F202034FF0FF32A4
:103840009A604FF4C843C4F202034FF0FF32DA60CB
:1038500002B07047AFF30080AFF30080AFF3008099
:1038600000B585B00390029101920093039B002B59
:1038700005D149F68020C0F60000FDF781FD039BCD
:103880005B7A4FF0010202FA03F31A4640F6106326
:10389000C2F200031B681340002B02D04FF001035B
:1038A00080E0039B5B7A1A4640F61463C2F2000381
:1038B000019943F83210039B5B7A40F61462C2F21E
:1038C00000024FEAC303D318009A5A60039B5B7A45
:1038D0004FF0010202FA03F31A4640F61063C2F2F7
:1038E00000031B681A4340F61063C2F200031A601B
:1038F00040F61063C2F200031B68DBB2002B0BD052
:103900004FF46053C4F202034FF46052C4F2020257
:10391000126B42F400121A6340F61063C2F2000305
:103920001B6803F47F43002B0BD04FF46053C4F2A9
:1039300002034FF46052C4F20202126B42F480029E
:103940001A63039B1B68039A1268126822F01F0215
:103950001A60039B1B681B6803F00103002BF8D15E
:10396000039B5B68039A127A4FF03D0101FA02F261
:103970001A60039B1B684FF000021A60039B1B68D0
:103980004FF021025A61019B002B09D0039B9B7AC7
:103990001A46029B4FEA031310461946FDF700FA38
:1039A0004FF00003184605B000BD00BFAFF3008024
:1039B0004FF4E043C4F200034FF4E042C4F20002CB
:1039C000126842F480721A604FF46053C4F202032A
:1039D0001B6F03F44073B3F5807F0DD04FF4605339
:1039E000C4F202034FF480321A674FF46053C4F2FA
:1039F00002034FF000021A674FF46053C4F202034F
:103A00004FF46052C4F20202126F42F001021A67D0
:103A100000BF4FF46053C4F202031B6F03F00203B4
:103A2000002BF6D04FF46053C4F202031B6F03F473
:103A30000043002B17D14FF46053C4F202034FF43C
:103A40006052C4F20202126F42F480721A674FF49D
:103A50006053C4F202034FF46052C4F20202126FC8
:103A600042F400421A674FF46053C4F202034FF469
:103A70006052C4F20202126B42F480221A634FF4C5
:103A8000E043C4F200034FF4E042C4F20002526883
:103A900042F400725A6000BF4FF4E043C4F20003E6
:103AA0005B6803F00803002BF6D07047AFF300808B
:103AB00008B54FF46053C4F202031B694FF460531E
:103AC000C4F202034FF0FF321A614FF46053C4F2A4
:103AD00002034FF000021A614FF46053C4F2020374
:103AE0005B694FF46053C4F202034FF0FF325A6136
:103AF0004FF46053C4F202034FF000025A614FF4D6
:103B00006053C4F202034FF46052C4F20202126A1C
:103B100062F080521A624FF46053C4F202034FF015
:103B200000021A624FF46053C4F202035B6A4FF45E
:103B30006053C4F202034FF0FF325A624FF46053F5
:103B4000C4F202034FF000025A624EF21003CEF2AA
:103B5000000349F23F02C0F202025A604EF2100323
:103B6000CEF200034FF000029A604EF21003CEF244
:103B700000034FF007021A604EF6F053CEF2000336
:103B80004EF6F052CEF20002D26842F08072DA6055
:103B90004FF48053CEF200034FF48052CEF2000275
:103BA000126842F001021A604FF46053C4F202033B
:103BB0004FF46052C4F20202126C42F080521A6456
:103BC000FFF7F6FEFFF7FCFD08BD00BFAFF3008076
:103BD0004FF46053C4F202034FF080521A644FF462
:103BE000E043C4F200034FF480421A6000BF4FF478
:103BF000E043C4F200035B6803F48043002BF6D07B
:103C00004FF46053C4F202034FF46052C4F2020254
:103C1000126842F001021A6000BF4FF46053C4F210
:103C200002031B6803F00203002BF6D04FF460532D
:103C3000C4F202034FF46052C4F20202126842F46A
:103C400080321A6000BF4FF46053C4F202031B6855
:103C500003F40033002BF6D04FF46053C4F2020398
:103C60004FF46052C4F20202526F42F001025A67EE
:103C700000BF4FF46053C4F202035B6F03F0020312
:103C8000002BF6D04FF46053C4F2020345F21A42FF
:103C9000C0F240725A604FF46053C4F202034FF412
:103CA0006052C4F20202126842F080721A6000BFD1
:103CB0004FF46053C4F202031B6803F00073002B3F
:103CC000F6D04FF46052C4F202024FF46053C4F2D3
:103CD000020399684FF41443C3F608030B4393603F
:103CE0004FF47053C4F2020340F205721A604FF4AD
:103CF0006053C4F202034FF46052C4F202029268AD
:103D000042F002029A6000BF4FF46053C4F2020313
:103D10009B6803F00C03082BF6D14FF46053C4F2F8
:103D200002034FF46052C4F20202526C42F4804229
:103D30005A644FF46053C4F202034FF46052C4F269
:103D40000202526E42F480425A667047AFF300801E
:103D500000B585B0FDF724FA4FF40053C4F2010317
:103D60001B6803934FF40053C4F201034FF00002A9
:103D70001A60039B03F02003002B6DD040F6946380
:103D8000C2F20003DB6A1B685B68002B64D040F65C
:103D90009463C2F200031B69002B5DD040F694606F
:103DA000C2F2000000F0CCF940F69463C2F20003C6
:103DB0001B699B68002B21D040F69463C2F200037C
:103DC0004FF005021A7040F69463C2F200031B69BB
:103DD0009B6840F69460C2F200004FF001019847E2
:103DE00040F69463C2F200031B78052B06D140F61F
:103DF0009463C2F200034FF002021A7040F694631B
:103E0000C2F200034FF000021A614FF0200383F367
:103E10001188FDF785F940F69463C2F200035B69EF
:103E2000002B13D040F69463C2F200035B69029347
:103E300040F69463C2F200034FF000025A61029B05
:103E40004FF0FF329A620298FDF7C2FBFDF788F946
:103E50004FF0000383F311884FF40453C4F20103BD
:103E60001B6803934FF40453C4F201034FF00002A4
:103E70001A60039B03F02003002B6DD040F6C8634B
:103E8000C2F20003DB6A1B685B68002B64D040F65B
:103E9000C863C2F200031B69002B5DD040F6C86006
:103EA000C2F2000000F04CF940F6C863C2F2000311
:103EB0001B699B68002B21D040F6C863C2F2000347
:103EC0004FF005021A7040F6C863C2F200031B6986
:103ED0009B6840F6C860C2F200004FF001019847AD
:103EE00040F6C863C2F200031B78052B06D140F6EA
:103EF000C863C2F200034FF002021A7040F6C863B2
:103F0000C2F200034FF000021A614FF0200383F366
:103F10001188FDF705F940F6C863C2F200035B693A
:103F2000002B13D040F6C863C2F200035B69019313
:103F300040F6C863C2F200034FF000025A61019BD1
:103F40004FF0FF329A620198FDF742FBFDF708F946
:103F50004FF0000383F311884FF40853C4F20103B8
:103F60001B6803934FF40853C4F201034FF000029F
:103F70001A60039B03F02003002B6DD040F6FC6316
:103F8000C2F20003DB6A1B685B68002B64D040F65A
:103F9000FC63C2F200031B69002B5DD040F6FC609D
:103FA000C2F2000000F0CCF840F6FC63C2F200035D
:103FB0001B699B68002B21D040F6FC63C2F2000312
:103FC0004FF005021A7040F6FC63C2F200031B6951
:103FD0009B6840F6FC60C2F200004FF00101984778
:103FE00040F6FC63C2F200031B78052B06D140F6B5
:103FF000FC63C2F200034FF002021A7040F6FC6349
:10400000C2F200034FF000021A614FF0200383F365
:104010001188FDF785F840F6FC63C2F200035B6986
:10402000002B13D040F6FC63C2F200035B690093DF
:1040300040F6FC63C2F200034FF000025A61009B9D
:104040004FF0FF329A620098FDF7C2FAFDF788F848
:104050004FF0000383F31188FDF7D2F8FCF700FE60
:1040600005B000BDAFF30080AFF30080AFF3008078
:1040700008B540F69460C2F20000FEF731FA40F64F
:104080009463C2F200034FF40052C4F201029A6238
:1040900040F69463C2F20003264ADA6240F6946363
:1040A000C2F2000342F61642C0F202021A6340F660
:1040B000C860C2F20000FEF713FA40F6C863C2F20D
:1040C00000034FF40452C4F201029A6240F6C8633E
:1040D000C2F20003184ADA6240F6C863C2F2000373
:1040E00042F61642C0F202221A6340F6FC60C2F2A7
:1040F0000000FEF7F5F940F6FC63C2F200034FF44E
:104100000852C4F201029A6240F6FC63C2F2000354
:104110000A4ADA6240F6FC63C2F2000342F6164233
:10412000C0F202421A634FF012004FF05001FCF748
:1041300037FE08BD609D0008489D00083C9D0008B2
:1041400082B00190019BDB6A1B68019AD26A1268F7
:10415000126822F01F021A60019BDB6A1B681B6851
:1041600003F00103002BF7D1019BDB6A5B68019A26
:10417000D26A127A4FF03D0101FA02F21A60019BF5
:104180009B6A4FF000025A60019B9B6A4FF000024D
:104190009A60019B9B6A4FF001029A6002B07047DF
:1041A00008B5FCF7FDFF4FF47053C4F201034FF064
:1041B00001025A6140F63073C2F200035B685B682B
:1041C00040F63070C2F200004FF000019847FDF752
:1041D00017F8FCF745FD08BDAFF30080AFF3008092
:1041E00008B5FCF7DDFF4FF47053C4F201034FF044
:1041F00002025A6140F63073C2F200035B68DB686A
:1042000040F63070C2F200004FF001019847FCF711
:10421000F7FFFCF725FD08BDAFF30080AFF300808A
:1042200008B5FCF7BDFF4FF47053C4F201034FF023
:1042300004025A6140F63073C2F200035B685B69A6
:1042400040F63070C2F200004FF002019847FCF7D0
:10425000D7FFFCF705FD08BDAFF30080AFF300808A
:1042600008B5FCF79DFF4FF47053C4F201034FF003
:1042700008025A6140F63073C2F200035B68DB69E2
:1042800040F63070C2F200004FF003019847FCF78F
:10429000B7FFFCF7E5FC08BDAFF30080AFF300808B
:1042A00008B5FCF77DFF4FF47053C4F201034FF0E3
:1042B00010025A6140F63073C2F200035B685B6A19
:1042C00040F63070C2F200004FF004019847FCF74E
:1042D00097FFFCF7C5FC08BDAFF30080AFF300808B
:1042E00000B583B0FCF75CFF4FF47053C4F20103D8
:1042F0005B6903F4787301934FF47053C4F20103C4
:10430000019A5A61019B03F02003002B0CD040F668
:104310003073C2F200035B68DB6A40F63070C2F2B1
:1043200000004FF005019847019B03F04003002B6C
:104330000CD040F63073C2F200035B685B6B40F652
:104340003070C2F200004FF006019847019B03F065
:104350008003002B0CD040F63073C2F200035B6880
:10436000DB6B40F63070C2F200004FF00701984757
:10437000019B03F48073002B0CD040F63073C2F223
:1043800000035B685B6C40F63070C2F200004FF0D7
:1043900008019847019B03F40073002B0CD040F6F2
:1043A0003073C2F200035B68DB6C40F63070C2F21F
:1043B00000004FF009019847FCF722FFFCF750FC82
:1043C00003B000BDAFF30080AFF30080AFF3008017
:1043D00000B583B0FCF7E4FE4FF47053C4F2010360
:1043E0005B6903F47C4301934FF47053C4F20103FF
:1043F000019A5A61019B03F48063002B0CD040F6B4
:104400003073C2F200035B685B6D40F63070C2F23D
:1044100000004FF00A019847019B03F40063002B52
:104420000CD040F63073C2F200035B68DB6D40F6DF
:104430003070C2F200004FF00B019847019B03F46B
:104440008053002B0CD040F63073C2F200035B683F
:104450005B6E40F63070C2F200004FF00C019847DE
:10446000019B03F40053002B0CD040F63073C2F2D2
:1044700000035B68DB6E40F63070C2F200004FF064
:104480000D019847019B03F48043002B0CD040F6AC
:104490003073C2F200035B685B6F40F63070C2F2AB
:1044A00000004FF00E019847019B03F40043002BDE
:1044B0000CD040F63073C2F200035B68DB6F40F64D
:1044C0003070C2F200004FF00F019847FCF798FEE1
:1044D000FCF7C6FB03B000BDAFF30080AFF3008074
:1044E00008B5FCF75DFE4FF47053C4F201034FF4BE
:1044F00080325A6140F63073C2F200035B68D3F831
:10450000843040F63070C2F200004FF0100198473E
:10451000FCF776FEFCF7A4FB08BD00BFAFF30080FC
:1045200008B5FCF73DFE4FF47053C4F201034FF49D
:1045300000325A6140F63073C2F200035B68D3F870
:104540008C3040F63070C2F200004FF011019847F5
:10455000FCF756FEFCF784FB08BD00BFAFF30080FC
:1045600008B5FCF71DFE4FF47053C4F201034FF47D
:1045700080225A6140F63073C2F200035B68D3F8C0
:10458000943040F63070C2F200004FF012019847AC
:10459000FCF736FEFCF764FB08BD00BFAFF30080FC
:1045A00008B5FCF7FDFD4FF47053C4F201034FF45E
:1045B00000225A6140F63073C2F200035B68D3F800
:1045C0009C3040F63070C2F200004FF01301984763
:1045D000FCF716FEFCF744FB08BD00BFAFF30080FC
:1045E00008B5FCF7DDFD4FF47053C4F201034FF43E
:1045F00080125A6140F63073C2F200035B68D3F850
:10460000A43040F63070C2F200004FF01401984719
:10461000FCF7F6FDFCF724FB08BD00BFAFF30080FC
:1046200008B5FCF7BDFD4FF47053C4F201034FF41D
:1046300080025A6140F63073C2F200035B68D3F81F
:10464000B43040F63070C2F200004FF016019847C7
:10465000FCF7D6FDFCF704FB08BD00BFAFF30080FC
:1046600008B540F63070C2F20000FDF769FF08BDE2
:1046700000B585B00390029101920093039B1B6BE0
:1046800003F01003002B03D1029B4FEA4323029354
:10469000019B012B15D903984FF01201029A009B40
:1046A00000F05EFB0346002B08D1009B1A684EF217
:1046B0000803CFF6FF531340002B18D04FF001032F
:1046C00017E003984FF01101029A009B00F048FB9D
:1046D0000346002B08D1009B1A684EF20803CFF660
:1046E000FF531340002B02D04FF0010301E04FF0C5
:1046F0000003184605B000BDAFF30080AFF30080A3
:1047000000B585B00390029101920093039B1B6B4F
:1047100003F01003002B03D1029B4FEA43230293C3
:10472000019B012B15D903984FF01901029A009BA8
:1047300000F016FB0346002B08D1009B1A684EF2CE
:104740000803CFF6FF531340002B18D04FF001039E
:1047500017E003984FF01801029A009B00F000FB4D
:104760000346002B08D1009B1A684EF20803CFF6CF
:10477000FF531340002B02D04FF0010301E04FF034
:104780000003184605B000BDAFF30080AFF3008012
:1047900000B585B00390029101924FF0200383F39E
:1047A0001188FCF77DFC4FF43053C4F20103DB6B3E
:1047B000002B1ED0039BDB6B002B05D049F6D020CD
:1047C000C0F60000FCF7DCFD40F6C853C2F200035F
:1047D0009A69039BDA634FF00200FCF739FF039BF1
:1047E000DB6B002B05D049F6F820C0F60000FCF783
:1047F000C7FD4FF43053C4F201035B6B03F48073C5
:10480000002B08D1FCF76CFC4FF0000383F31188F8
:104810004FF0010338E000BF039B5B6C1B681B6813
:1048200003F00103002BF7D1039B5B6C5B68039AD9
:10483000526C127A4FF03D0101FA02F21A604FF405
:104840003053C4F2010340F2FF72C0F2C0029A6317
:104850004FF43053C4F201034FF00002DA62FCF768
:104860003FFC4FF0000383F31188029B012B09D911
:1048700003984FF00C014FF00002019B00F070FA1A
:10488000034601E04FF00003184605B000BD00BF2D
:1048900084B0019000914FF000030393009B03F05C
:1048A0000103002B03D0039B43F001030393009B00
:1048B00003F00203002B03D0039B43F00203039396
:1048C000009B03F00403002B03D0039B43F0080379
:1048D0000393009B03F00803002B03D0039B43F0DA
:1048E00004030393009B03F01003002B03D0039BEE
:1048F00043F010030393009B03F02003002B03D02D
:10490000039B43F020030393009B03F40073002BED
:1049100003D0039B43F040030393019B5A6B039B1B
:104920001A43019B5A6304B0704700BFAFF3008085
:1049300000B587B00390029101924FF43053C4F256
:1049400001035B6B0593039B5B6C5B68039A526C82
:10495000127A4FF03D0101FA02F21A60039B5B6C80
:104960001B68039A526C1268126822F01F021A60C8
:10497000039B5B6C1B681B6803F00103002BF7D1E2
:10498000039B5B6C5B68039A526C127A4FF03D019B
:1049900001FA02F21A604FF43053C4F2010340F2FC
:1049A000FF72C0F2C0029A634FF43053C4F20103A5
:1049B0004FF00002DA634FF43053C4F201034FF0BA
:1049C0000002DA6203980599FFF762FF029B012B50
:1049D00007D903984FF00C014FF00002019B00F043
:1049E000BFF907B000BD00BFAFF30080AFF3008098
:1049F00008B5FCF7D5FB4FF0200383F31188FCF7D3
:104A00008FFB4FF43053C4F201034FF00002DA631E
:104A100040F63873C2F20003DB6B002B0ED040F679
:104A20003873C2F20003DB6B1846FCF7D1FD40F689
:104A30003873C2F200034FF00002DA63FCF790FB18
:104A40004FF0000383F31188FCF7DAFBFCF708F959
:104A500008BD00BFAFF30080AFF30080AFF300806C
:104A600008B540F63870C2F20000FDF7C9FE40F606
:104A70003873C2F200034FF00002DA6340F6387375
:104A8000C2F20003054A5A6440F63873C2F20003CA
:104A90004FF43052C4F201029A6408BD549D0008DC
:104AA00000B585B00190019A4FF4A843C0F6030306
:104AB0001364019B1B6C43F4200343F02003019A11
:104AC0001364019B1B79012B37D1019B5B6C18464A
:104AD0004FF009014FF000024FF00003FEF7C0FE57
:104AE00003468DF80F309DF80F30002B05D049F6A6
:104AF0002030C0F60000FCF743FC019B5B6C1A6899
:104B00004FF43253C4F201039360019B5B6C1B684A
:104B10004FF007025A614FF031004FF09001FCF75F
:104B20003FF94FF46053C4F202034FF46052C4F2F1
:104B30000202526C42F400625A644FF43053C4F2E1
:104B400001034FF000021A604FF43053C4F2010326
:104B50004FF000025A604FF43053C4F201034FF09B
:104B60000002DA624FF43053C4F201034FF0000246
:104B70005A6205B000BD00BFAFF30080AFF3008004
:104B800082B001904FF43053C4F201034FF0780229
:104B90005A604FF43053C4F201034FF43052C4F260
:104BA0000102126842F003021A604FF43053C4F25B
:104BB00001034FF43052C4F20102526842F4807291
:104BC0005A6002B0704700BFAFF30080AFF30080BF
:104BD00082B001904FF43053C4F201034FF43052CD
:104BE000C4F20102526822F0FF025A6002B070471C
:104BF00082B001904FF43053C4F201034FF0000231
:104C00005A604FF43053C4F201034FF000021A60AF
:104C100002B07047AFF30080AFF30080AFF30080C5
:104C200084B001900B468DF803304FF43053C4F23A
:104C300001035B6823F4C05303939DF80330012BF9
:104C40000AD0022B11D0002B18D14FF43053C4F2EC
:104C50000103039A5A6011E04FF43053C4F2010388
:104C6000039A42F400625A6008E04FF43053C4F2F1
:104C70000103039A42F480525A6000BF04B07047A7
:104C800084B003900B4601928DF80B304FF43053F3
:104C9000C4F20103019A9A604FF43053C4F2010345
:104CA0009DF80B2042F48062DA6000BF4FF430536D
:104CB000C4F201035B6B03F08003002BF6D04FF4CA
:104CC0003053C4F201034FF080029A6304B070477E
:104CD00000B587B00390019200930B468DF80B301E
:104CE0004FF43053C4F20103019A9A604FF43053E9
:104CF000C4F201039DF80B2042F04002D2B242F40C
:104D00008062DA6000BF4FF43053C4F201035B6B82
:104D10000593059B03F04503002BF4D04FF430536B
:104D2000C4F20103059A9A63059B03F00403002B68
:104D300006D003980599FFF7ABFD4FF0010308E09B
:104D40004FF43053C4F201035A69009B1A604FF0CC
:104D50000003184607B000BDAFF30080AFF300803A
:104D600000B587B00390019200930B468DF80B308D
:104D70004FF43053C4F20103019A9A604FF4305358
:104D8000C4F201039DF80B2042F04002D2B242F47B
:104D90008062DA6000BF4FF43053C4F201035B6BF2
:104DA0000593059B03F04503002BF4D04FF43053DB
:104DB000C4F20103059A9A63059B03F00503002BD7
:104DC00006D003980599FFF763FD4FF0010308E053
:104DD0004FF43053C4F201035A69009B1A604FF03C
:104DE0000003184607B000BDAFF30080AFF30080AA
:104DF00000B587B00390019200930B468DF80B30FD
:104E00004FF43053C4F20103019A9A604FF43053C7
:104E1000C4F201039DF80B2062F03F02D2B242F4CB
:104E20008062DA6000BF4FF43053C4F201035B6B61
:104E30000593059B03F04503002BF4D04FF430534A
:104E4000C4F20103059A9A63059B03F03F03002B0C
:104E500006D003980599FFF71BFD4FF0010329E0E9
:104E60004FF43053C4F201031A6A009B1A60009B8E
:104E700003F1040300934FF43053C4F20103DA69E1
:104E8000009B1A60009B03F1040300934FF430531E
:104E9000C4F201039A69009B1A60009B03F10403AA
:104EA00000934FF43053C4F201035A69009B1A6017
:104EB0004FF00003184607B000BD00BFAFF30080FD
:104EC00000B587B00390029101920093009A47F6D3
:104ED000FF739A4205D949F63430C0F60000FCF75A
:104EE0004FFA4FF43053C4F201034DF2C042C0F206
:104EF00001025A620398FDF743FC0346002B02D0DF
:104F00004FF001035CE0039B5B6C1B68019ADA6065
:104F1000039B5B6C1B68009A4FEA42224FEA9202A5
:104F20005A60039B5B6C1B68039A126C1A60039BAC
:104F30005B6C1B68039A526C1268126842F00102A3
:104F40001A604FF43053C4F2010340F2FF72C0F212
:104F5000C0029A634FF43053C4F2010340F22A3284
:104F6000DA634FF43053C4F20103009A4FEA42224D
:104F70009A6205AB03980299009AFFF779FB034602
:104F8000002B12D14FF43053C4F201034FF09B02B7
:104F9000DA6205AB039800991A46FFF7F9FB03465E
:104FA000002B04D14FF000030AE000BF00E000BF77
:104FB00005AB039800991A46FFF7BAFC4FF00103BE
:104FC000184607B000BD00BFAFF30080AFF300800C
:104FD00000B587B00390029101920093009A47F6C2
:104FE000FF739A4205D949F63430C0F60000FCF749
:104FF000C7F94FF43053C4F2010348F68052C0F2AF
:105000005B025A620398FDF7BBFB0346002B02D0FC
:105010004FF001035EE0039B5B6C1B68019ADA6052
:10502000039B5B6C1B68009A4FEA42224FEA920294
:105030005A60039B5B6C1B68039A126C42F040023F
:105040001A60039B5B6C1B68039A526C12681268AF
:1050500042F001021A604FF43053C4F2010340F2EF
:10506000FF72C0F2C0029A634FF43053C4F20103DE
:1050700040F21A32DA634FF43053C4F20103009A5B
:105080004FEA42229A6205AB03980299009AFFF711
:1050900037FB0346002B12D14FF43053C4F2010307
:1050A0004FF09902DA6205AB039800991A46FFF7B0
:1050B0006FFB0346002B04D14FF000030AE000BF52
:1050C00000E000BF05AB039800991A46FFF730FCDB
:1050D0004FF00103184607B000BD00BFAFF30080DA
:1050E00000B587B00390029101920093019B03F0F9
:1050F0000303002B34D04FF00003059329E00398FD
:10510000029940F68472C2F200024FF00103FFF7E9
:10511000D7FE0346002B02D04FF0010327E0019A8F
:1051200040F68473C2F2000311461A464FF400732E
:10513000084611461A4604F0EBF8019B03F500738C
:105140000193029B03F101030293059B03F1010309
:105150000593059A009B9A42D1D34FF0000306E0D5
:1051600003980299019A009BFFF7AAFE034618468E
:1051700007B000BDAFF30080AFF30080AFF3008055
:1051800000B587B00390029101920093019B03F058
:105190000303002B33D04FF00003059328E040F6C3
:1051A0008473C2F20003019A19464FF40073084653
:1051B00011461A4604F0ACF8019B03F50073019305
:1051C0000398029940F68472C2F200024FF0010384
:1051D000FFF7FEFE0346002B02D04FF0010315E05F
:1051E000029B03F101030293059B03F10103059365
:1051F000059A009B9A42D2D34FF0000306E0039831
:105200000299019A009BFFF7E3FE0346184607B098
:1052100000BD00BFAFF30080AFF30080AFF30080AC
:1052200082B001904FF00003184602B0704700BFF3
:1052300082B001900091009B5A68019B5A60009BCC
:105240009A68019B9A60009BDA68019BDA60009B78
:105250001A69019B5A61009B5A69019B1A62009B63
:105260009A69019B5A62009B1A68019B1A6002B0FE
:10527000704700BFAFF30080AFF30080AFF3008052
:1052800000B583B001904FF46053C4F202034FF4B1
:105290006052C4F20202126B6FEA52226FEA42229B
:1052A0001A634FF46053C4F202034FF46052C4F225
:1052B0000202126D6FEA52226FEA42221A65019BC6
:1052C0004FF00000C4F202001946FFF7B1FF019B46
:1052D00003F11C034FF48060C4F202001946FFF78B
:1052E000A7FF019B03F138034FF40060C4F20200F2
:1052F0001946FFF79DFF019B03F154034FF44060F3
:10530000C4F202001946FFF793FF019B03F17003FB
:105310004FF48050C4F202001946FFF789FF019B49
:1053200003F18C034FF4A050C4F202001946FFF7BA
:105330007FFF019B03F1A8034FF4C050C4F20200A9
:105340001946FFF775FF019B03F1C4034FF4E050CA
:10535000C4F202001946FFF76BFF019B03F1E00363
:105360004FF40050C4F202001946FFF761FF03B08A
:1053700000BD00BFAFF30080AFF30080AFF300804B
:1053800000B587B00190019B5B6B0593059B1B8B60
:105390009BB20493059B9B8A9BB20393049B4FEAA9
:1053A0000342039B134323F07F434FF00202C0F2FA
:1053B000030293421ED04FF00202C0F20302934256
:1053C00006D84FF00102C0F2030293420DD092E0E2
:1053D0004FF08202C0F20702934234D04FF08402B1
:1053E000C0F20702934241D085E0019B1A8C059BD5
:1053F0001A8282E0059B9B889BB223F400739AB2C9
:10540000059B9A80019BDB6A1B68019AD26A12682D
:10541000126842F001021A60059B9B889BB243F41C
:1054200080539AB2059B9A80019BDB6A1B685B687C
:10543000012B61D8059B1B889BB223F480639AB231
:10544000059B1A8058E0059B9B889BB223F4007350
:105450009AB2059B9A80019B1B6B1B68019A126B89
:105460001268126842F001021A6046E0019BDB6A92
:105470001B685B68002B0FD0019B1B8C43F0010362
:105480009AB2019B1A84059B1B889BB243F4A063CC
:105490009AB2059B1A8037E0059B9B889BB223F448
:1054A00000739AB2059B9A80059B1B889BB243F4BC
:1054B00000739AB2059B1A804FF0200383F3118882
:1054C000FBF72EFE019BDB69002B0DD0019BDB69F6
:1054D0000293019B4FF00002DA61029B4FF0000241
:1054E0009A620298FCF774F8FBF73AFE4FF000035B
:1054F00083F3118801E000E000BF039B03F00A037F
:10550000002B01D0059B1B8B07B000BDAFF30080C3
:1055100000B585B001900B46ADF80230019B1B6BC6
:105520001B68019A126B1268126822F01F021A603F
:10553000019B1B6B1B681B6803F00103002BF7D159
:10554000019B1B6B5B68019A126B127A4FF03D0155
:1055500001FA02F21A60019BDB6A1B68019AD26AA7
:105560001268126822F01F021A60019BDB6A1B6836
:105570001B6803F00103002BF7D1019BDB6A5B681A
:10558000019AD26A127A4FF03D0101FA02F21A60D2
:10559000019B4FF000029A60BDF8023003F4807363
:1055A000002B05D0019B9B6843F00102019B9A6090
:1055B000BDF8023003F40073002B05D0019B9B68FB
:1055C00043F00202019B9A60BDF8023003F480634D
:1055D000002B19D0019B5B6B019A526B928892B29F
:1055E00022F4007292B29A80019B5B6B019A526B1B
:1055F000128892B242F4007292B21A80019B9B68A8
:1056000043F00402019B9A60BDF8023003F400638A
:10561000002B05D0019B9B6843F00802019B9A6018
:10562000BDF8023003F48043002B05D0019B9B683A
:1056300043F02002019B9A60BDF8023003F48053CE
:10564000002B05D0019B9B6843F01002019B9A60E0
:10565000BDF802301BB2002B05DA019B9B6843F0BA
:105660004002019B9A60019B9B68002B1DD04FF06C
:10567000200383F31188FBF753FD019BDB69002BAB
:105680000DD0019BDB690393019B4FF00002DA61AF
:10569000039B6FF001029A620398FBF799FFFBF7F7
:1056A0005FFD4FF0000383F3118805B000BD00BF1C
:1056B00008B5FBF775FD41F28410C2F20000FFF758
:1056C0005FFEFBF79DFDFBF7CBFA08BDAFF3008053
:1056D00000B583B041F28413C2F200035B6B9B8A76
:1056E000ADF80630FBF75CFD41F28413C2F2000313
:1056F0005A6BBDF8063023F4035323F03F039BB2EB
:105700006FEA03039BB29382BDF8063041F2841026
:10571000C2F200001946FFF7FBFEFBF771FDFBF735
:105720009FFA03B000BD00BFAFF30080AFF300806D
:1057300008B541F28410C2F20000FCF731FF41F2DB
:105740008413C2F200034FF00002DA6141F28413C5
:10575000C2F200034FF4B042C4F200025A6341F2B5
:105760008413C2F20003044ADA6241F28413C2F2E3
:105770000003024A1A6308BDE89C0008249D000843
:1057800082B041F2BC13C2F200034FF42052C4F2C3
:1057900000021A604FF07F03019341F2BC13C2F282
:1057A00000031B684FF0CA025A6241F2BC13C2F2F6
:1057B00000031B684FF053025A624FF42053C4F2A7
:1057C0000003DB6803F01003002B45D141F2BC134A
:1057D000C2F200031A6841F2BC13C2F200031B6854
:1057E000DB6843F08003D36041F2BC13C2F20003D4
:1057F0001B68DB6803F04003002BF5D0019B4FEAE8
:105800000342019B03F101034FF40041B1FBF3F3A9
:1058100003F1FF334FEA43434FEA534313430193EA
:1058200041F2BC13C2F200031B68019A1A6141F2F3
:10583000BC13C2F200031B68019A1A6141F2BC1347
:10584000C2F200031A6841F2BC13C2F200031B68E3
:10585000DB6823F08003D36002B07047AFF30080B1
:1058600082B00190009141F2BC13C2F200031B68A8
:10587000DB6803F02003002BF5D041F2BC13C2F229
:1058800000031B681B694FEA43434FEA534341F24D
:10589000BC12C2F200021268926A9B1A4FF47A722A
:1058A00002FB03F241F2BC13C2F200031B681B6946
:1058B0004FEA43434FEA534303F10103B2FBF3F2D0
:1058C000009BDA6041F2BC13C2F200031B681A6845
:1058D000009B5A6041F2BC13C2F200031B685A6875
:1058E000009B1A6002B07047AFF30080AFF30080F6
:1058F00000B58BB001904FF0200383F31188FBF7C4
:10590000CFFB02AB01981946FFF7AAFFFBF7E8FBB4
:105910004FF0000383F31188039B0993029B0893C4
:10592000099B03F00F030793099B03F070034FEAF1
:10593000131213464FEA83039B184FEA4303079A57
:10594000D3180793079B4FEA53030693099B03F46D
:1059500070634FEA13230793099B03F4E0434FEA74
:10596000133213464FEA83039B184FEA4303079A07
:10597000D3180793079B4FEA4313069A13430693E2
:10598000099B03F470234FEA13430793099B03F425
:1059900040134FEA135213464FEA83039B184FEA12
:1059A0004303079AD3180793099B03F480034FEA34
:1059B000935213464FEA43039B184FEA8303079A17
:1059C000D3180793079B4FEAC323069A1343069302
:1059D000089B03F00F030793089B03F030034FEA83
:1059E000131213464FEA83039B184FEA4303079AA7
:1059F000D3180793079B4FEA0343069A1343069372
:105A0000089B03F470634FEA13230793089B03F486
:105A100080534FEA133213464FEA83039B184FEA31
:105A20004303079AD3180793079B4FEA4353069AF9
:105A300013430693089B03F470234FEA1343079321
:105A4000089B03F470034FEA135213464FEA830393
:105A50009B184FEA4303079AD3180793079B03F158
:105A600014030793079B4FEA4363069A1343069375
:105A7000069B18460BB000BDAFF30080AFF300806B
:105A800008B541F22023C2F200034FF6FF721A80DC
:105A900041F2C010C2F20000FDF77AFB41F2C013E0
:105AA000C2F200034FF44052C4F20102DA6141F243
:105AB000C013C2F20003244A1A6241F2C013C2F2B8
:105AC0000003224A5A6241F2C013C2F200034FF0AF
:105AD0001602C0F201629A6241F2C013C2F20003E0
